{
  "address": "0xA1BCB8D4109cc5989091B5982C7D34F097B1B34D",
  "abi": [
    {
      "inputs": [
        {
          "internalType": "address",
          "name": "vrfCoordinatorV2",
          "type": "address"
        },
        {
          "internalType": "uint256",
          "name": "entranceFee",
          "type": "uint256"
        },
        {
          "internalType": "bytes32",
          "name": "gasLane",
          "type": "bytes32"
        },
        {
          "internalType": "uint64",
          "name": "subscriptionId",
          "type": "uint64"
        },
        {
          "internalType": "uint32",
          "name": "callbackGasLimit",
          "type": "uint32"
        },
        {
          "internalType": "uint256",
          "name": "interval",
          "type": "uint256"
        }
      ],
      "stateMutability": "nonpayable",
      "type": "constructor"
    },
    {
      "inputs": [
        {
          "internalType": "address",
          "name": "have",
          "type": "address"
        },
        {
          "internalType": "address",
          "name": "want",
          "type": "address"
        }
      ],
      "name": "OnlyCoordinatorCanFulfill",
      "type": "error"
    },
    {
      "inputs": [],
      "name": "Raffle__NotEnoughETHEntered",
      "type": "error"
    },
    {
      "inputs": [],
      "name": "Raffle__NotOpen",
      "type": "error"
    },
    {
      "inputs": [],
      "name": "Raffle__TransferFailed",
      "type": "error"
    },
    {
      "inputs": [
        {
          "internalType": "uint256",
          "name": "currentBalance",
          "type": "uint256"
        },
        {
          "internalType": "uint256",
          "name": "numPlayers",
          "type": "uint256"
        },
        {
          "internalType": "uint256",
          "name": "raffleState",
          "type": "uint256"
        }
      ],
      "name": "Raffle__UpKeepNotNeeded",
      "type": "error"
    },
    {
      "anonymous": false,
      "inputs": [
        {
          "indexed": false,
          "internalType": "uint256",
          "name": "requestId",
          "type": "uint256"
        }
      ],
      "name": "RequestedRaffleWinner",
      "type": "event"
    },
    {
      "anonymous": false,
      "inputs": [
        {
          "indexed": true,
          "internalType": "address",
          "name": "player",
          "type": "address"
        }
      ],
      "name": "WinnerPicked",
      "type": "event"
    },
    {
      "anonymous": false,
      "inputs": [
        {
          "indexed": true,
          "internalType": "address",
          "name": "player",
          "type": "address"
        }
      ],
      "name": "raffleEnter",
      "type": "event"
    },
    {
      "inputs": [
        {
          "internalType": "bytes",
          "name": "",
          "type": "bytes"
        }
      ],
      "name": "checkUpkeep",
      "outputs": [
        {
          "internalType": "bool",
          "name": "upkeepNeeded",
          "type": "bool"
        },
        {
          "internalType": "bytes",
          "name": "",
          "type": "bytes"
        }
      ],
      "stateMutability": "view",
      "type": "function"
    },
    {
      "inputs": [],
      "name": "enterRaffle",
      "outputs": [],
      "stateMutability": "payable",
      "type": "function"
    },
    {
      "inputs": [],
      "name": "getEntranceFee",
      "outputs": [
        {
          "internalType": "uint256",
          "name": "",
          "type": "uint256"
        }
      ],
      "stateMutability": "view",
      "type": "function"
    },
    {
      "inputs": [],
      "name": "getInterval",
      "outputs": [
        {
          "internalType": "uint256",
          "name": "",
          "type": "uint256"
        }
      ],
      "stateMutability": "view",
      "type": "function"
    },
    {
      "inputs": [],
      "name": "getLatestTimestamp",
      "outputs": [
        {
          "internalType": "uint256",
          "name": "",
          "type": "uint256"
        }
      ],
      "stateMutability": "view",
      "type": "function"
    },
    {
      "inputs": [],
      "name": "getNumConfirmations",
      "outputs": [
        {
          "internalType": "uint256",
          "name": "",
          "type": "uint256"
        }
      ],
      "stateMutability": "pure",
      "type": "function"
    },
    {
      "inputs": [],
      "name": "getNumPlayers",
      "outputs": [
        {
          "internalType": "uint256",
          "name": "",
          "type": "uint256"
        }
      ],
      "stateMutability": "view",
      "type": "function"
    },
    {
      "inputs": [],
      "name": "getNumWords",
      "outputs": [
        {
          "internalType": "uint256",
          "name": "",
          "type": "uint256"
        }
      ],
      "stateMutability": "pure",
      "type": "function"
    },
    {
      "inputs": [
        {
          "internalType": "uint256",
          "name": "index",
          "type": "uint256"
        }
      ],
      "name": "getPlayer",
      "outputs": [
        {
          "internalType": "address",
          "name": "",
          "type": "address"
        }
      ],
      "stateMutability": "view",
      "type": "function"
    },
    {
      "inputs": [],
      "name": "getRaffleState",
      "outputs": [
        {
          "internalType": "uint256",
          "name": "",
          "type": "uint256"
        }
      ],
      "stateMutability": "view",
      "type": "function"
    },
    {
      "inputs": [],
      "name": "getRecentWinner",
      "outputs": [
        {
          "internalType": "address",
          "name": "",
          "type": "address"
        }
      ],
      "stateMutability": "view",
      "type": "function"
    },
    {
      "inputs": [
        {
          "internalType": "bytes",
          "name": "",
          "type": "bytes"
        }
      ],
      "name": "performUpkeep",
      "outputs": [],
      "stateMutability": "nonpayable",
      "type": "function"
    },
    {
      "inputs": [
        {
          "internalType": "uint256",
          "name": "requestId",
          "type": "uint256"
        },
        {
          "internalType": "uint256[]",
          "name": "randomWords",
          "type": "uint256[]"
        }
      ],
      "name": "rawFulfillRandomWords",
      "outputs": [],
      "stateMutability": "nonpayable",
      "type": "function"
    }
  ],
  "transactionHash": "0xb32c4fbbe27c2317995273adf5162c5083390f607c20e0acd8370d0d4233daac",
  "args": [
    "0x8103B0A8A00be2DDC778e6e7eaa21791Cd364625",
    "10000000000000000",
    "0x474e34a077df58807dbe9c96d3c009b23b3c6d0cce433e59bbf5b34f823bc56c",
    "1060",
    "500000",
    "30"
  ],
  "numDeployments": 2,
  "solcInputHash": "ce2edc76678ab3985d815b3c409a65b8",
  "bytecode": "0x610160604052426002553480156200001657600080fd5b50604051620018743803806200187483398181016040528101906200003c9190620001f4565b858073ffffffffffffffffffffffffffffffffffffffff1660808173ffffffffffffffffffffffffffffffffffffffff1660601b81525050508461010081815250508573ffffffffffffffffffffffffffffffffffffffff1660a08173ffffffffffffffffffffffffffffffffffffffff1660601b815250508360c081815250508267ffffffffffffffff1660e08167ffffffffffffffff1660c01b815250508163ffffffff166101408163ffffffff1660e01b815250506000600360006101000a81548160ff021916908360018111156200011d576200011c620002fc565b5b021790555060006001811115620001395762000138620002fc565b5b600360006101000a81548160ff0219169083600181111562000160576200015f620002fc565b5b021790555042600281905550806101208181525050505050505050620003b2565b600081519050620001928162000330565b92915050565b600081519050620001a9816200034a565b92915050565b600081519050620001c08162000364565b92915050565b600081519050620001d7816200037e565b92915050565b600081519050620001ee8162000398565b92915050565b60008060008060008060c087890312156200021457620002136200032b565b5b60006200022489828a0162000181565b96505060206200023789828a01620001af565b95505060406200024a89828a0162000198565b94505060606200025d89828a01620001dd565b93505060806200027089828a01620001c6565b92505060a06200028389828a01620001af565b9150509295509295509295565b60006200029d82620002ae565b9050919050565b6000819050919050565b600073ffffffffffffffffffffffffffffffffffffffff82169050919050565b6000819050919050565b600063ffffffff82169050919050565b600067ffffffffffffffff82169050919050565b7f4e487b7100000000000000000000000000000000000000000000000000000000600052602160045260246000fd5b600080fd5b6200033b8162000290565b81146200034757600080fd5b50565b6200035581620002a4565b81146200036157600080fd5b50565b6200036f81620002ce565b81146200037b57600080fd5b50565b6200038981620002d8565b81146200039557600080fd5b50565b620003a381620002e8565b8114620003af57600080fd5b50565b60805160601c60a05160601c60c05160e05160c01c61010051610120516101405160e01c6114466200042e60003960006106ae01526000818161080701526108b00152600081816102fa01526104090152600061068b0152600061066a0152600061062e015260008181610349015261039d01526114466000f3fe6080604052600436106100c25760003560e01c806353a2c19a1161007f57806391ad27b41161005957806391ad27b414610238578063e55ae4e814610263578063f43b52cb146102a0578063ffc51274146102cb576100c2565b806353a2c19a146101a457806355c9e926146101cf5780636e04ff0d146101fa576100c2565b806309bc33a7146100c7578063115cbaf5146100f25780631fe543e31461011d5780632cfcc539146101465780634585e33b14610150578063473f1ddc14610179575b600080fd5b3480156100d357600080fd5b506100dc6102f6565b6040516100e99190611085565b60405180910390f35b3480156100fe57600080fd5b5061010761031e565b6040516101149190611085565b60405180910390f35b34801561012957600080fd5b50610144600480360381019061013f9190610e88565b610347565b005b61014e610407565b005b34801561015c57600080fd5b5061017760048036038101906101729190610d98565b610576565b005b34801561018557600080fd5b5061018e610780565b60405161019b9190610fbe565b60405180910390f35b3480156101b057600080fd5b506101b96107aa565b6040516101c69190611085565b60405180910390f35b3480156101db57600080fd5b506101e46107b9565b6040516101f19190611085565b60405180910390f35b34801561020657600080fd5b50610221600480360381019061021c9190610de5565b6107c5565b60405161022f929190611002565b60405180910390f35b34801561024457600080fd5b5061024d6108ac565b60405161025a9190611085565b60405180910390f35b34801561026f57600080fd5b5061028a60048036038101906102859190610e2e565b6108d4565b6040516102979190610fbe565b60405180910390f35b3480156102ac57600080fd5b506102b561091b565b6040516102c29190611085565b60405180910390f35b3480156102d757600080fd5b506102e0610925565b6040516102ed9190611085565b60405180910390f35b60007f0000000000000000000000000000000000000000000000000000000000000000905090565b6000600360009054906101000a900460ff1660018111156103425761034161133a565b5b905090565b7f000000000000000000000000000000000000000000000000000000000000000073ffffffffffffffffffffffffffffffffffffffff163373ffffffffffffffffffffffffffffffffffffffff16146103f957337f00000000000000000000000000000000000000000000000000000000000000006040517f1cf993f40000000000000000000000000000000000000000000000000000000081526004016103f0929190610fd9565b60405180910390fd5b6104038282610932565b5050565b7f0000000000000000000000000000000000000000000000000000000000000000341015610461576040517fbd4e069500000000000000000000000000000000000000000000000000000000815260040160405180910390fd5b600060018111156104755761047461133a565b5b600360009054906101000a900460ff1660018111156104975761049661133a565b5b146104ce576040517f1425571c00000000000000000000000000000000000000000000000000000000815260040160405180910390fd5b6000339080600181540180825580915050600190039060005260206000200160009091909190916101000a81548173ffffffffffffffffffffffffffffffffffffffff021916908373ffffffffffffffffffffffffffffffffffffffff1602179055503373ffffffffffffffffffffffffffffffffffffffff167f742d070bf0f3edace132a9da8ba725e8cf99c478869cee7f673ed6085e2f8e6460405160405180910390a2565b6000610590604051806020016040528060008152506107c5565b509050806105ff5747600080549050600360009054906101000a900460ff1660018111156105c1576105c061133a565b5b6040517f3a8d60860000000000000000000000000000000000000000000000000000000081526004016105f6939291906110a0565b60405180910390fd5b6001600360006101000a81548160ff021916908360018111156106255761062461133a565b5b021790555060007f000000000000000000000000000000000000000000000000000000000000000073ffffffffffffffffffffffffffffffffffffffff16635d3b1d307f00000000000000000000000000000000000000000000000000000000000000007f000000000000000000000000000000000000000000000000000000000000000060037f000000000000000000000000000000000000000000000000000000000000000060036040518663ffffffff1660e01b81526004016106ef959493929190611032565b602060405180830381600087803b15801561070957600080fd5b505af115801561071d573d6000803e3d6000fd5b505050506040513d601f19601f820116820180604052508101906107419190610e5b565b90507fcd6e45c8998311cab7e9d4385596cac867e20a0587194b954fa3a731c93ce78b816040516107729190611085565b60405180910390a150505050565b6000600160009054906101000a900473ffffffffffffffffffffffffffffffffffffffff16905090565b6000600363ffffffff16905090565b60008080549050905090565b6000606060008060018111156107de576107dd61133a565b5b600360009054906101000a900460ff166001811115610800576107ff61133a565b5b14905060007f0000000000000000000000000000000000000000000000000000000000000000600254426108349190611180565b119050600080600080549050119050600080471190508380156108545750825b801561085d5750815b80156108665750805b9550856040518060400160405280600381526020017f30783000000000000000000000000000000000000000000000000000000000008152509550955050505050915091565b60007f0000000000000000000000000000000000000000000000000000000000000000905090565b60008082815481106108e9576108e8611369565b5b9060005260206000200160009054906101000a900473ffffffffffffffffffffffffffffffffffffffff169050919050565b6000600254905090565b6000600361ffff16905090565b600080805490508260008151811061094d5761094c611369565b5b602002602001015161095f91906112ab565b9050600080828154811061097657610975611369565b5b9060005260206000200160009054906101000a900473ffffffffffffffffffffffffffffffffffffffff16905080600160006101000a81548173ffffffffffffffffffffffffffffffffffffffff021916908373ffffffffffffffffffffffffffffffffffffffff160217905550426002819055506000600360006101000a81548160ff02191690836001811115610a1157610a1061133a565b5b0217905550600067ffffffffffffffff811115610a3157610a30611398565b5b604051908082528060200260200182016040528015610a5f5781602001602082028036833780820191505090505b5060009080519060200190610a75929190610b63565b5060008173ffffffffffffffffffffffffffffffffffffffff1647604051610a9c90610fa9565b60006040518083038185875af1925050503d8060008114610ad9576040519150601f19603f3d011682016040523d82523d6000602084013e610ade565b606091505b5050905080610b19576040517fa1d04b3900000000000000000000000000000000000000000000000000000000815260040160405180910390fd5b8173ffffffffffffffffffffffffffffffffffffffff167f5b690ec4a06fe979403046eaeea5b3ce38524683c3001f662c8b5a829632f7df60405160405180910390a25050505050565b828054828255906000526020600020908101928215610bdc579160200282015b82811115610bdb5782518260006101000a81548173ffffffffffffffffffffffffffffffffffffffff021916908373ffffffffffffffffffffffffffffffffffffffff16021790555091602001919060010190610b83565b5b509050610be99190610bed565b5090565b5b80821115610c06576000816000905550600101610bee565b5090565b6000610c1d610c18846110fc565b6110d7565b90508083825260208201905082856020860282011115610c4057610c3f6113d1565b5b60005b85811015610c705781610c568882610d6e565b845260208401935060208301925050600181019050610c43565b5050509392505050565b6000610c8d610c8884611128565b6110d7565b905082815260208101848484011115610ca957610ca86113d6565b5b610cb4848285611238565b509392505050565b600082601f830112610cd157610cd06113cc565b5b8135610ce1848260208601610c0a565b91505092915050565b60008083601f840112610d0057610cff6113cc565b5b8235905067ffffffffffffffff811115610d1d57610d1c6113c7565b5b602083019150836001820283011115610d3957610d386113d1565b5b9250929050565b600082601f830112610d5557610d546113cc565b5b8135610d65848260208601610c7a565b91505092915050565b600081359050610d7d816113f9565b92915050565b600081519050610d92816113f9565b92915050565b60008060208385031215610daf57610dae6113e0565b5b600083013567ffffffffffffffff811115610dcd57610dcc6113db565b5b610dd985828601610cea565b92509250509250929050565b600060208284031215610dfb57610dfa6113e0565b5b600082013567ffffffffffffffff811115610e1957610e186113db565b5b610e2584828501610d40565b91505092915050565b600060208284031215610e4457610e436113e0565b5b6000610e5284828501610d6e565b91505092915050565b600060208284031215610e7157610e706113e0565b5b6000610e7f84828501610d83565b91505092915050565b60008060408385031215610e9f57610e9e6113e0565b5b6000610ead85828601610d6e565b925050602083013567ffffffffffffffff811115610ece57610ecd6113db565b5b610eda85828601610cbc565b9150509250929050565b610eed816111b4565b82525050565b610efc816111c6565b82525050565b610f0b816111d2565b82525050565b6000610f1c82611159565b610f268185611164565b9350610f36818560208601611247565b610f3f816113e5565b840191505092915050565b6000610f57600083611175565b9150610f62826113f6565b600082019050919050565b610f76816111dc565b82525050565b610f858161120a565b82525050565b610f9481611214565b82525050565b610fa381611224565b82525050565b6000610fb482610f4a565b9150819050919050565b6000602082019050610fd36000830184610ee4565b92915050565b6000604082019050610fee6000830185610ee4565b610ffb6020830184610ee4565b9392505050565b60006040820190506110176000830185610ef3565b81810360208301526110298184610f11565b90509392505050565b600060a0820190506110476000830188610f02565b6110546020830187610f9a565b6110616040830186610f6d565b61106e6060830185610f8b565b61107b6080830184610f8b565b9695505050505050565b600060208201905061109a6000830184610f7c565b92915050565b60006060820190506110b56000830186610f7c565b6110c26020830185610f7c565b6110cf6040830184610f7c565b949350505050565b60006110e16110f2565b90506110ed828261127a565b919050565b6000604051905090565b600067ffffffffffffffff82111561111757611116611398565b5b602082029050602081019050919050565b600067ffffffffffffffff82111561114357611142611398565b5b61114c826113e5565b9050602081019050919050565b600081519050919050565b600082825260208201905092915050565b600081905092915050565b600061118b8261120a565b91506111968361120a565b9250828210156111a9576111a86112dc565b5b828203905092915050565b60006111bf826111ea565b9050919050565b60008115159050919050565b6000819050919050565b600061ffff82169050919050565b600073ffffffffffffffffffffffffffffffffffffffff82169050919050565b6000819050919050565b600063ffffffff82169050919050565b600067ffffffffffffffff82169050919050565b82818337600083830152505050565b60005b8381101561126557808201518184015260208101905061124a565b83811115611274576000848401525b50505050565b611283826113e5565b810181811067ffffffffffffffff821117156112a2576112a1611398565b5b80604052505050565b60006112b68261120a565b91506112c18361120a565b9250826112d1576112d061130b565b5b828206905092915050565b7f4e487b7100000000000000000000000000000000000000000000000000000000600052601160045260246000fd5b7f4e487b7100000000000000000000000000000000000000000000000000000000600052601260045260246000fd5b7f4e487b7100000000000000000000000000000000000000000000000000000000600052602160045260246000fd5b7f4e487b7100000000000000000000000000000000000000000000000000000000600052603260045260246000fd5b7f4e487b7100000000000000000000000000000000000000000000000000000000600052604160045260246000fd5b600080fd5b600080fd5b600080fd5b600080fd5b600080fd5b600080fd5b6000601f19601f8301169050919050565b50565b6114028161120a565b811461140d57600080fd5b5056fea264697066735822122021f0526271d5c3f18614eeb5585ee7d5437fd3949eb2d1ac794d8ac3ee80eccf64736f6c63430008070033",
  "devdoc": {
    "kind": "dev",
    "methods": {},
    "version": 1
  },
  "userdoc": {
    "events": {
      "raffleEnter(address)": {
        "notice": "Events "
      }
    },
    "kind": "user",
    "methods": {
      "checkUpkeep(bytes)": {
        "notice": "CHAINLINK KEEPERS ::  These are tasks that are triggered when a certain condition is met.  They are run on individual nodes and can be used to automte functions and smart contracts.  This can be done by importing the keeper contract, importing two  functions from it namely,  1) checkUpkeep,    2) performUpkeep."
      },
      "performUpkeep(bytes)": {
        "notice": "Requesting the Random Number ::  This is usually a two function process   If there is only one function, the user can simulate the process by calling this function again and again.   Instead we make the request in one function and fulfill it in the second. ==> the secind function is predefined in the contract."
      }
    },
    "version": 1
  },
  "storageLayout": {
    "storage": [
      {
        "astId": 1173,
        "contract": "contracts/Raffle.sol:Raffle",
        "label": "s_players",
        "offset": 0,
        "slot": "0",
        "type": "t_array(t_address_payable)dyn_storage"
      },
      {
        "astId": 1175,
        "contract": "contracts/Raffle.sol:Raffle",
        "label": "s_recentWinner",
        "offset": 0,
        "slot": "1",
        "type": "t_address"
      },
      {
        "astId": 1179,
        "contract": "contracts/Raffle.sol:Raffle",
        "label": "s_lastTimeStamp",
        "offset": 0,
        "slot": "2",
        "type": "t_uint256"
      },
      {
        "astId": 1182,
        "contract": "contracts/Raffle.sol:Raffle",
        "label": "s_raffleState",
        "offset": 0,
        "slot": "3",
        "type": "t_enum(RaffleState)1160"
      }
    ],
    "types": {
      "t_address": {
        "encoding": "inplace",
        "label": "address",
        "numberOfBytes": "20"
      },
      "t_address_payable": {
        "encoding": "inplace",
        "label": "address payable",
        "numberOfBytes": "20"
      },
      "t_array(t_address_payable)dyn_storage": {
        "base": "t_address_payable",
        "encoding": "dynamic_array",
        "label": "address payable[]",
        "numberOfBytes": "32"
      },
      "t_enum(RaffleState)1160": {
        "encoding": "inplace",
        "label": "enum Raffle.RaffleState",
        "numberOfBytes": "1"
      },
      "t_uint256": {
        "encoding": "inplace",
        "label": "uint256",
        "numberOfBytes": "32"
      }
    }
  }
}