{
  "address": "0xD9DC9C5122c30442339523B3b6eb16A17075e42b",
  "abi": [
    {
      "inputs": [
        {
          "internalType": "address",
          "name": "vrfCoordinatorV2",
          "type": "address"
        },
        {
          "internalType": "uint256",
          "name": "entranceFee",
          "type": "uint256"
        },
        {
          "internalType": "bytes32",
          "name": "gasLane",
          "type": "bytes32"
        },
        {
          "internalType": "uint64",
          "name": "subscriptionId",
          "type": "uint64"
        },
        {
          "internalType": "uint32",
          "name": "callbackGasLimit",
          "type": "uint32"
        },
        {
          "internalType": "uint256",
          "name": "interval",
          "type": "uint256"
        }
      ],
      "stateMutability": "nonpayable",
      "type": "constructor"
    },
    {
      "inputs": [
        {
          "internalType": "address",
          "name": "have",
          "type": "address"
        },
        {
          "internalType": "address",
          "name": "want",
          "type": "address"
        }
      ],
      "name": "OnlyCoordinatorCanFulfill",
      "type": "error"
    },
    {
      "inputs": [],
      "name": "Raffle__NotEnoughETHEntered",
      "type": "error"
    },
    {
      "inputs": [],
      "name": "Raffle__NotOpen",
      "type": "error"
    },
    {
      "inputs": [],
      "name": "Raffle__TransferFailed",
      "type": "error"
    },
    {
      "inputs": [
        {
          "internalType": "uint256",
          "name": "currentBalance",
          "type": "uint256"
        },
        {
          "internalType": "uint256",
          "name": "numPlayers",
          "type": "uint256"
        },
        {
          "internalType": "uint256",
          "name": "raffleState",
          "type": "uint256"
        }
      ],
      "name": "Raffle__UpKeepNotNeeded",
      "type": "error"
    },
    {
      "anonymous": false,
      "inputs": [
        {
          "indexed": false,
          "internalType": "uint256",
          "name": "requestId",
          "type": "uint256"
        }
      ],
      "name": "RequestedRaffleWinner",
      "type": "event"
    },
    {
      "anonymous": false,
      "inputs": [
        {
          "indexed": true,
          "internalType": "address",
          "name": "player",
          "type": "address"
        }
      ],
      "name": "WinnerPicked",
      "type": "event"
    },
    {
      "anonymous": false,
      "inputs": [
        {
          "indexed": true,
          "internalType": "address",
          "name": "player",
          "type": "address"
        }
      ],
      "name": "raffleEnter",
      "type": "event"
    },
    {
      "inputs": [
        {
          "internalType": "bytes",
          "name": "",
          "type": "bytes"
        }
      ],
      "name": "checkUpkeep",
      "outputs": [
        {
          "internalType": "bool",
          "name": "upkeepNeeded",
          "type": "bool"
        },
        {
          "internalType": "bytes",
          "name": "",
          "type": "bytes"
        }
      ],
      "stateMutability": "view",
      "type": "function"
    },
    {
      "inputs": [],
      "name": "enterRaffle",
      "outputs": [],
      "stateMutability": "payable",
      "type": "function"
    },
    {
      "inputs": [],
      "name": "getEntranceFee",
      "outputs": [
        {
          "internalType": "uint256",
          "name": "",
          "type": "uint256"
        }
      ],
      "stateMutability": "view",
      "type": "function"
    },
    {
      "inputs": [],
      "name": "getInterval",
      "outputs": [
        {
          "internalType": "uint256",
          "name": "",
          "type": "uint256"
        }
      ],
      "stateMutability": "view",
      "type": "function"
    },
    {
      "inputs": [],
      "name": "getLatestTimestamp",
      "outputs": [
        {
          "internalType": "uint256",
          "name": "",
          "type": "uint256"
        }
      ],
      "stateMutability": "view",
      "type": "function"
    },
    {
      "inputs": [],
      "name": "getNumConfirmations",
      "outputs": [
        {
          "internalType": "uint256",
          "name": "",
          "type": "uint256"
        }
      ],
      "stateMutability": "pure",
      "type": "function"
    },
    {
      "inputs": [],
      "name": "getNumPlayers",
      "outputs": [
        {
          "internalType": "uint256",
          "name": "",
          "type": "uint256"
        }
      ],
      "stateMutability": "view",
      "type": "function"
    },
    {
      "inputs": [],
      "name": "getNumWords",
      "outputs": [
        {
          "internalType": "uint256",
          "name": "",
          "type": "uint256"
        }
      ],
      "stateMutability": "pure",
      "type": "function"
    },
    {
      "inputs": [
        {
          "internalType": "uint256",
          "name": "index",
          "type": "uint256"
        }
      ],
      "name": "getPlayer",
      "outputs": [
        {
          "internalType": "address",
          "name": "",
          "type": "address"
        }
      ],
      "stateMutability": "view",
      "type": "function"
    },
    {
      "inputs": [],
      "name": "getRaffleState",
      "outputs": [
        {
          "internalType": "uint256",
          "name": "",
          "type": "uint256"
        }
      ],
      "stateMutability": "view",
      "type": "function"
    },
    {
      "inputs": [],
      "name": "getRecentWinner",
      "outputs": [
        {
          "internalType": "address",
          "name": "",
          "type": "address"
        }
      ],
      "stateMutability": "view",
      "type": "function"
    },
    {
      "inputs": [
        {
          "internalType": "bytes",
          "name": "",
          "type": "bytes"
        }
      ],
      "name": "performUpkeep",
      "outputs": [],
      "stateMutability": "nonpayable",
      "type": "function"
    },
    {
      "inputs": [
        {
          "internalType": "uint256",
          "name": "requestId",
          "type": "uint256"
        },
        {
          "internalType": "uint256[]",
          "name": "randomWords",
          "type": "uint256[]"
        }
      ],
      "name": "rawFulfillRandomWords",
      "outputs": [],
      "stateMutability": "nonpayable",
      "type": "function"
    }
  ],
  "transactionHash": "0x8f12a9d8eae732d17f764d1d7094fd856407068abdbc33e2e775fce13c84f035",
  "args": [
    "0x271682DEB8C4E0901D1a1550aD2e64D568E69909",
    "10000000000000000",
    "0x8af398995b04c28e9951adb9721ef74c74f93e6a478f39e7e0777be13527e7ef",
    "11147",
    "500000",
    "30"
  ],
  "numDeployments": 1,
  "solcInputHash": "907252325448e5e1ae6974885ea54054",
  "bytecode": "0x610160604052426002553480156200001657600080fd5b50604051620018393803806200183983398181016040528101906200003c9190620001f4565b858073ffffffffffffffffffffffffffffffffffffffff1660808173ffffffffffffffffffffffffffffffffffffffff1660601b81525050508461010081815250508573ffffffffffffffffffffffffffffffffffffffff1660a08173ffffffffffffffffffffffffffffffffffffffff1660601b815250508360c081815250508267ffffffffffffffff1660e08167ffffffffffffffff1660c01b815250508163ffffffff166101408163ffffffff1660e01b815250506000600360006101000a81548160ff021916908360018111156200011d576200011c620002fc565b5b021790555060006001811115620001395762000138620002fc565b5b600360006101000a81548160ff0219169083600181111562000160576200015f620002fc565b5b021790555042600281905550806101208181525050505050505050620003b2565b600081519050620001928162000330565b92915050565b600081519050620001a9816200034a565b92915050565b600081519050620001c08162000364565b92915050565b600081519050620001d7816200037e565b92915050565b600081519050620001ee8162000398565b92915050565b60008060008060008060c087890312156200021457620002136200032b565b5b60006200022489828a0162000181565b96505060206200023789828a01620001af565b95505060406200024a89828a0162000198565b94505060606200025d89828a01620001dd565b93505060806200027089828a01620001c6565b92505060a06200028389828a01620001af565b9150509295509295509295565b60006200029d82620002ae565b9050919050565b6000819050919050565b600073ffffffffffffffffffffffffffffffffffffffff82169050919050565b6000819050919050565b600063ffffffff82169050919050565b600067ffffffffffffffff82169050919050565b7f4e487b7100000000000000000000000000000000000000000000000000000000600052602160045260246000fd5b600080fd5b6200033b8162000290565b81146200034757600080fd5b50565b6200035581620002a4565b81146200036157600080fd5b50565b6200036f81620002ce565b81146200037b57600080fd5b50565b6200038981620002d8565b81146200039557600080fd5b50565b620003a381620002e8565b8114620003af57600080fd5b50565b60805160601c60a05160601c60c05160e05160c01c61010051610120516101405160e01c61140b6200042e60003960006106ae01526000818161080701526108750152600081816102fa01526104090152600061068b0152600061066a0152600061062e015260008181610349015261039d015261140b6000f3fe6080604052600436106100c25760003560e01c806353a2c19a1161007f57806391ad27b41161005957806391ad27b414610238578063e55ae4e814610263578063f43b52cb146102a0578063ffc51274146102cb576100c2565b806353a2c19a146101a457806355c9e926146101cf5780636e04ff0d146101fa576100c2565b806309bc33a7146100c7578063115cbaf5146100f25780631fe543e31461011d5780632cfcc539146101465780634585e33b14610150578063473f1ddc14610179575b600080fd5b3480156100d357600080fd5b506100dc6102f6565b6040516100e9919061104a565b60405180910390f35b3480156100fe57600080fd5b5061010761031e565b604051610114919061104a565b60405180910390f35b34801561012957600080fd5b50610144600480360381019061013f9190610e4d565b610347565b005b61014e610407565b005b34801561015c57600080fd5b5061017760048036038101906101729190610d5d565b610576565b005b34801561018557600080fd5b5061018e610780565b60405161019b9190610f83565b60405180910390f35b3480156101b057600080fd5b506101b96107aa565b6040516101c6919061104a565b60405180910390f35b3480156101db57600080fd5b506101e46107b9565b6040516101f1919061104a565b60405180910390f35b34801561020657600080fd5b50610221600480360381019061021c9190610daa565b6107c5565b60405161022f929190610fc7565b60405180910390f35b34801561024457600080fd5b5061024d610871565b60405161025a919061104a565b60405180910390f35b34801561026f57600080fd5b5061028a60048036038101906102859190610df3565b610899565b6040516102979190610f83565b60405180910390f35b3480156102ac57600080fd5b506102b56108e0565b6040516102c2919061104a565b60405180910390f35b3480156102d757600080fd5b506102e06108ea565b6040516102ed919061104a565b60405180910390f35b60007f0000000000000000000000000000000000000000000000000000000000000000905090565b6000600360009054906101000a900460ff166001811115610342576103416112ff565b5b905090565b7f000000000000000000000000000000000000000000000000000000000000000073ffffffffffffffffffffffffffffffffffffffff163373ffffffffffffffffffffffffffffffffffffffff16146103f957337f00000000000000000000000000000000000000000000000000000000000000006040517f1cf993f40000000000000000000000000000000000000000000000000000000081526004016103f0929190610f9e565b60405180910390fd5b61040382826108f7565b5050565b7f0000000000000000000000000000000000000000000000000000000000000000341015610461576040517fbd4e069500000000000000000000000000000000000000000000000000000000815260040160405180910390fd5b60006001811115610475576104746112ff565b5b600360009054906101000a900460ff166001811115610497576104966112ff565b5b146104ce576040517f1425571c00000000000000000000000000000000000000000000000000000000815260040160405180910390fd5b6000339080600181540180825580915050600190039060005260206000200160009091909190916101000a81548173ffffffffffffffffffffffffffffffffffffffff021916908373ffffffffffffffffffffffffffffffffffffffff1602179055503373ffffffffffffffffffffffffffffffffffffffff167f742d070bf0f3edace132a9da8ba725e8cf99c478869cee7f673ed6085e2f8e6460405160405180910390a2565b6000610590604051806020016040528060008152506107c5565b509050806105ff5747600080549050600360009054906101000a900460ff1660018111156105c1576105c06112ff565b5b6040517f3a8d60860000000000000000000000000000000000000000000000000000000081526004016105f693929190611065565b60405180910390fd5b6001600360006101000a81548160ff02191690836001811115610625576106246112ff565b5b021790555060007f000000000000000000000000000000000000000000000000000000000000000073ffffffffffffffffffffffffffffffffffffffff16635d3b1d307f00000000000000000000000000000000000000000000000000000000000000007f000000000000000000000000000000000000000000000000000000000000000060037f000000000000000000000000000000000000000000000000000000000000000060036040518663ffffffff1660e01b81526004016106ef959493929190610ff7565b602060405180830381600087803b15801561070957600080fd5b505af115801561071d573d6000803e3d6000fd5b505050506040513d601f19601f820116820180604052508101906107419190610e20565b90507fcd6e45c8998311cab7e9d4385596cac867e20a0587194b954fa3a731c93ce78b81604051610772919061104a565b60405180910390a150505050565b6000600160009054906101000a900473ffffffffffffffffffffffffffffffffffffffff16905090565b6000600363ffffffff16905090565b60008080549050905090565b6000606060008060018111156107de576107dd6112ff565b5b600360009054906101000a900460ff166001811115610800576107ff6112ff565b5b14905060007f0000000000000000000000000000000000000000000000000000000000000000600254426108349190611145565b119050600080600080549050119050600080471190508380156108545750825b801561085d5750815b80156108665750805b955050505050915091565b60007f0000000000000000000000000000000000000000000000000000000000000000905090565b60008082815481106108ae576108ad61132e565b5b9060005260206000200160009054906101000a900473ffffffffffffffffffffffffffffffffffffffff169050919050565b6000600254905090565b6000600361ffff16905090565b60008080549050826000815181106109125761091161132e565b5b60200260200101516109249190611270565b9050600080828154811061093b5761093a61132e565b5b9060005260206000200160009054906101000a900473ffffffffffffffffffffffffffffffffffffffff16905080600160006101000a81548173ffffffffffffffffffffffffffffffffffffffff021916908373ffffffffffffffffffffffffffffffffffffffff160217905550426002819055506000600360006101000a81548160ff021916908360018111156109d6576109d56112ff565b5b0217905550600067ffffffffffffffff8111156109f6576109f561135d565b5b604051908082528060200260200182016040528015610a245781602001602082028036833780820191505090505b5060009080519060200190610a3a929190610b28565b5060008173ffffffffffffffffffffffffffffffffffffffff1647604051610a6190610f6e565b60006040518083038185875af1925050503d8060008114610a9e576040519150601f19603f3d011682016040523d82523d6000602084013e610aa3565b606091505b5050905080610ade576040517fa1d04b3900000000000000000000000000000000000000000000000000000000815260040160405180910390fd5b8173ffffffffffffffffffffffffffffffffffffffff167f5b690ec4a06fe979403046eaeea5b3ce38524683c3001f662c8b5a829632f7df60405160405180910390a25050505050565b828054828255906000526020600020908101928215610ba1579160200282015b82811115610ba05782518260006101000a81548173ffffffffffffffffffffffffffffffffffffffff021916908373ffffffffffffffffffffffffffffffffffffffff16021790555091602001919060010190610b48565b5b509050610bae9190610bb2565b5090565b5b80821115610bcb576000816000905550600101610bb3565b5090565b6000610be2610bdd846110c1565b61109c565b90508083825260208201905082856020860282011115610c0557610c04611396565b5b60005b85811015610c355781610c1b8882610d33565b845260208401935060208301925050600181019050610c08565b5050509392505050565b6000610c52610c4d846110ed565b61109c565b905082815260208101848484011115610c6e57610c6d61139b565b5b610c798482856111fd565b509392505050565b600082601f830112610c9657610c95611391565b5b8135610ca6848260208601610bcf565b91505092915050565b60008083601f840112610cc557610cc4611391565b5b8235905067ffffffffffffffff811115610ce257610ce161138c565b5b602083019150836001820283011115610cfe57610cfd611396565b5b9250929050565b600082601f830112610d1a57610d19611391565b5b8135610d2a848260208601610c3f565b91505092915050565b600081359050610d42816113be565b92915050565b600081519050610d57816113be565b92915050565b60008060208385031215610d7457610d736113a5565b5b600083013567ffffffffffffffff811115610d9257610d916113a0565b5b610d9e85828601610caf565b92509250509250929050565b600060208284031215610dc057610dbf6113a5565b5b600082013567ffffffffffffffff811115610dde57610ddd6113a0565b5b610dea84828501610d05565b91505092915050565b600060208284031215610e0957610e086113a5565b5b6000610e1784828501610d33565b91505092915050565b600060208284031215610e3657610e356113a5565b5b6000610e4484828501610d48565b91505092915050565b60008060408385031215610e6457610e636113a5565b5b6000610e7285828601610d33565b925050602083013567ffffffffffffffff811115610e9357610e926113a0565b5b610e9f85828601610c81565b9150509250929050565b610eb281611179565b82525050565b610ec18161118b565b82525050565b610ed081611197565b82525050565b6000610ee18261111e565b610eeb8185611129565b9350610efb81856020860161120c565b610f04816113aa565b840191505092915050565b6000610f1c60008361113a565b9150610f27826113bb565b600082019050919050565b610f3b816111a1565b82525050565b610f4a816111cf565b82525050565b610f59816111d9565b82525050565b610f68816111e9565b82525050565b6000610f7982610f0f565b9150819050919050565b6000602082019050610f986000830184610ea9565b92915050565b6000604082019050610fb36000830185610ea9565b610fc06020830184610ea9565b9392505050565b6000604082019050610fdc6000830185610eb8565b8181036020830152610fee8184610ed6565b90509392505050565b600060a08201905061100c6000830188610ec7565b6110196020830187610f5f565b6110266040830186610f32565b6110336060830185610f50565b6110406080830184610f50565b9695505050505050565b600060208201905061105f6000830184610f41565b92915050565b600060608201905061107a6000830186610f41565b6110876020830185610f41565b6110946040830184610f41565b949350505050565b60006110a66110b7565b90506110b2828261123f565b919050565b6000604051905090565b600067ffffffffffffffff8211156110dc576110db61135d565b5b602082029050602081019050919050565b600067ffffffffffffffff8211156111085761110761135d565b5b611111826113aa565b9050602081019050919050565b600081519050919050565b600082825260208201905092915050565b600081905092915050565b6000611150826111cf565b915061115b836111cf565b92508282101561116e5761116d6112a1565b5b828203905092915050565b6000611184826111af565b9050919050565b60008115159050919050565b6000819050919050565b600061ffff82169050919050565b600073ffffffffffffffffffffffffffffffffffffffff82169050919050565b6000819050919050565b600063ffffffff82169050919050565b600067ffffffffffffffff82169050919050565b82818337600083830152505050565b60005b8381101561122a57808201518184015260208101905061120f565b83811115611239576000848401525b50505050565b611248826113aa565b810181811067ffffffffffffffff821117156112675761126661135d565b5b80604052505050565b600061127b826111cf565b9150611286836111cf565b925082611296576112956112d0565b5b828206905092915050565b7f4e487b7100000000000000000000000000000000000000000000000000000000600052601160045260246000fd5b7f4e487b7100000000000000000000000000000000000000000000000000000000600052601260045260246000fd5b7f4e487b7100000000000000000000000000000000000000000000000000000000600052602160045260246000fd5b7f4e487b7100000000000000000000000000000000000000000000000000000000600052603260045260246000fd5b7f4e487b7100000000000000000000000000000000000000000000000000000000600052604160045260246000fd5b600080fd5b600080fd5b600080fd5b600080fd5b600080fd5b600080fd5b6000601f19601f8301169050919050565b50565b6113c7816111cf565b81146113d257600080fd5b5056fea26469706673582212200db3e69a1c9cda4bad08ff58683a89468f489e3a89d2fe18201603e1c96c478d64736f6c63430008070033",
  "devdoc": {
    "kind": "dev",
    "methods": {},
    "version": 1
  },
  "userdoc": {
    "events": {
      "raffleEnter(address)": {
        "notice": "Events "
      }
    },
    "kind": "user",
    "methods": {
      "checkUpkeep(bytes)": {
        "notice": "CHAINLINK KEEPERS ::  These are tasks that are triggered when a certain condition is met.  They are run on individual nodes and can be used to automte functions and smart contracts.  This can be done by importing the keeper contract, importing two  functions from it namely,  1) checkUpkeep,    2) performUpkeep."
      },
      "performUpkeep(bytes)": {
        "notice": "Requesting the Random Number ::  This is usually a two function process   If there is only one function, the user can simulate the process by calling this function again and again.   Instead we make the request in one function and fulfill it in the second. ==> the secind function is predefined in the contract."
      }
    },
    "version": 1
  },
  "storageLayout": {
    "storage": [
      {
        "astId": 878,
        "contract": "contracts/Raffle.sol:Raffle",
        "label": "s_players",
        "offset": 0,
        "slot": "0",
        "type": "t_array(t_address_payable)dyn_storage"
      },
      {
        "astId": 880,
        "contract": "contracts/Raffle.sol:Raffle",
        "label": "s_recentWinner",
        "offset": 0,
        "slot": "1",
        "type": "t_address"
      },
      {
        "astId": 884,
        "contract": "contracts/Raffle.sol:Raffle",
        "label": "s_lastTimeStamp",
        "offset": 0,
        "slot": "2",
        "type": "t_uint256"
      },
      {
        "astId": 887,
        "contract": "contracts/Raffle.sol:Raffle",
        "label": "s_raffleState",
        "offset": 0,
        "slot": "3",
        "type": "t_enum(RaffleState)865"
      }
    ],
    "types": {
      "t_address": {
        "encoding": "inplace",
        "label": "address",
        "numberOfBytes": "20"
      },
      "t_address_payable": {
        "encoding": "inplace",
        "label": "address payable",
        "numberOfBytes": "20"
      },
      "t_array(t_address_payable)dyn_storage": {
        "base": "t_address_payable",
        "encoding": "dynamic_array",
        "label": "address payable[]",
        "numberOfBytes": "32"
      },
      "t_enum(RaffleState)865": {
        "encoding": "inplace",
        "label": "enum Raffle.RaffleState",
        "numberOfBytes": "1"
      },
      "t_uint256": {
        "encoding": "inplace",
        "label": "uint256",
        "numberOfBytes": "32"
      }
    }
  }
}